{
  "contractName": "YDDCoin",
  "abi": [
    {
      "inputs": [],
      "stateMutability": "nonpayable",
      "type": "constructor"
    },
    {
      "inputs": [
        {
          "internalType": "address",
          "name": "spender",
          "type": "address"
        },
        {
          "internalType": "uint256",
          "name": "allowance",
          "type": "uint256"
        },
        {
          "internalType": "uint256",
          "name": "needed",
          "type": "uint256"
        }
      ],
      "name": "ERC20InsufficientAllowance",
      "type": "error"
    },
    {
      "inputs": [
        {
          "internalType": "address",
          "name": "sender",
          "type": "address"
        },
        {
          "internalType": "uint256",
          "name": "balance",
          "type": "uint256"
        },
        {
          "internalType": "uint256",
          "name": "needed",
          "type": "uint256"
        }
      ],
      "name": "ERC20InsufficientBalance",
      "type": "error"
    },
    {
      "inputs": [
        {
          "internalType": "address",
          "name": "approver",
          "type": "address"
        }
      ],
      "name": "ERC20InvalidApprover",
      "type": "error"
    },
    {
      "inputs": [
        {
          "internalType": "address",
          "name": "receiver",
          "type": "address"
        }
      ],
      "name": "ERC20InvalidReceiver",
      "type": "error"
    },
    {
      "inputs": [
        {
          "internalType": "address",
          "name": "sender",
          "type": "address"
        }
      ],
      "name": "ERC20InvalidSender",
      "type": "error"
    },
    {
      "inputs": [
        {
          "internalType": "address",
          "name": "spender",
          "type": "address"
        }
      ],
      "name": "ERC20InvalidSpender",
      "type": "error"
    },
    {
      "anonymous": false,
      "inputs": [
        {
          "indexed": true,
          "internalType": "address",
          "name": "owner",
          "type": "address"
        },
        {
          "indexed": true,
          "internalType": "address",
          "name": "spender",
          "type": "address"
        },
        {
          "indexed": false,
          "internalType": "uint256",
          "name": "value",
          "type": "uint256"
        }
      ],
      "name": "Approval",
      "type": "event"
    },
    {
      "anonymous": false,
      "inputs": [
        {
          "indexed": true,
          "internalType": "address",
          "name": "from",
          "type": "address"
        },
        {
          "indexed": true,
          "internalType": "address",
          "name": "to",
          "type": "address"
        },
        {
          "indexed": false,
          "internalType": "uint256",
          "name": "value",
          "type": "uint256"
        }
      ],
      "name": "Transfer",
      "type": "event"
    },
    {
      "inputs": [],
      "name": "INITIAL_SUPPLY",
      "outputs": [
        {
          "internalType": "uint256",
          "name": "",
          "type": "uint256"
        }
      ],
      "stateMutability": "view",
      "type": "function",
      "constant": true
    },
    {
      "inputs": [],
      "name": "TOKEN_PRICE",
      "outputs": [
        {
          "internalType": "uint256",
          "name": "",
          "type": "uint256"
        }
      ],
      "stateMutability": "view",
      "type": "function",
      "constant": true
    },
    {
      "inputs": [
        {
          "internalType": "address",
          "name": "owner",
          "type": "address"
        },
        {
          "internalType": "address",
          "name": "spender",
          "type": "address"
        }
      ],
      "name": "allowance",
      "outputs": [
        {
          "internalType": "uint256",
          "name": "",
          "type": "uint256"
        }
      ],
      "stateMutability": "view",
      "type": "function",
      "constant": true
    },
    {
      "inputs": [
        {
          "internalType": "address",
          "name": "spender",
          "type": "address"
        },
        {
          "internalType": "uint256",
          "name": "value",
          "type": "uint256"
        }
      ],
      "name": "approve",
      "outputs": [
        {
          "internalType": "bool",
          "name": "",
          "type": "bool"
        }
      ],
      "stateMutability": "nonpayable",
      "type": "function"
    },
    {
      "inputs": [
        {
          "internalType": "address",
          "name": "account",
          "type": "address"
        }
      ],
      "name": "balanceOf",
      "outputs": [
        {
          "internalType": "uint256",
          "name": "",
          "type": "uint256"
        }
      ],
      "stateMutability": "view",
      "type": "function",
      "constant": true
    },
    {
      "inputs": [],
      "name": "decimals",
      "outputs": [
        {
          "internalType": "uint8",
          "name": "",
          "type": "uint8"
        }
      ],
      "stateMutability": "view",
      "type": "function",
      "constant": true
    },
    {
      "inputs": [],
      "name": "name",
      "outputs": [
        {
          "internalType": "string",
          "name": "",
          "type": "string"
        }
      ],
      "stateMutability": "view",
      "type": "function",
      "constant": true
    },
    {
      "inputs": [],
      "name": "symbol",
      "outputs": [
        {
          "internalType": "string",
          "name": "",
          "type": "string"
        }
      ],
      "stateMutability": "view",
      "type": "function",
      "constant": true
    },
    {
      "inputs": [],
      "name": "totalSupply",
      "outputs": [
        {
          "internalType": "uint256",
          "name": "",
          "type": "uint256"
        }
      ],
      "stateMutability": "view",
      "type": "function",
      "constant": true
    },
    {
      "inputs": [
        {
          "internalType": "address",
          "name": "to",
          "type": "address"
        },
        {
          "internalType": "uint256",
          "name": "value",
          "type": "uint256"
        }
      ],
      "name": "transfer",
      "outputs": [
        {
          "internalType": "bool",
          "name": "",
          "type": "bool"
        }
      ],
      "stateMutability": "nonpayable",
      "type": "function"
    },
    {
      "inputs": [
        {
          "internalType": "address",
          "name": "from",
          "type": "address"
        },
        {
          "internalType": "address",
          "name": "to",
          "type": "address"
        },
        {
          "internalType": "uint256",
          "name": "value",
          "type": "uint256"
        }
      ],
      "name": "transferFrom",
      "outputs": [
        {
          "internalType": "bool",
          "name": "",
          "type": "bool"
        }
      ],
      "stateMutability": "nonpayable",
      "type": "function"
    },
    {
      "inputs": [],
      "name": "buyTokens",
      "outputs": [],
      "stateMutability": "payable",
      "type": "function",
      "payable": true
    },
    {
      "inputs": [],
      "name": "withdrawETH",
      "outputs": [],
      "stateMutability": "nonpayable",
      "type": "function"
    },
    {
      "inputs": [],
      "name": "owner",
      "outputs": [
        {
          "internalType": "address",
          "name": "",
          "type": "address"
        }
      ],
      "stateMutability": "view",
      "type": "function",
      "constant": true
    }
  ],
  "bytecode": "0x608060405234801562000010575f80fd5b506040518060400160405280600781526020017f594444436f696e000000000000000000000000000000000000000000000000008152506040518060400160405280600381526020017f594444000000000000000000000000000000000000000000000000000000000081525081600390816200008e9190620005d7565b508060049081620000a09190620005d7565b505050620000bf3369021e19e0c9bab2400000620000c560201b60201c565b620007e7565b5f73ffffffffffffffffffffffffffffffffffffffff168273ffffffffffffffffffffffffffffffffffffffff160362000138575f6040517fec442f050000000000000000000000000000000000000000000000000000000081526004016200012f9190620006fe565b60405180910390fd5b6200014b5f83836200014f60201b60201c565b5050565b5f73ffffffffffffffffffffffffffffffffffffffff168373ffffffffffffffffffffffffffffffffffffffff1603620001a3578060025f82825462000196919062000746565b9250508190555062000274565b5f805f8573ffffffffffffffffffffffffffffffffffffffff1673ffffffffffffffffffffffffffffffffffffffff1681526020019081526020015f20549050818110156200022f578381836040517fe450d38c000000000000000000000000000000000000000000000000000000008152600401620002269392919062000791565b60405180910390fd5b8181035f808673ffffffffffffffffffffffffffffffffffffffff1673ffffffffffffffffffffffffffffffffffffffff1681526020019081526020015f2081905550505b5f73ffffffffffffffffffffffffffffffffffffffff168273ffffffffffffffffffffffffffffffffffffffff1603620002bd578060025f828254039250508190555062000307565b805f808473ffffffffffffffffffffffffffffffffffffffff1673ffffffffffffffffffffffffffffffffffffffff1681526020019081526020015f205f82825401925050819055505b8173ffffffffffffffffffffffffffffffffffffffff168373ffffffffffffffffffffffffffffffffffffffff167fddf252ad1be2c89b69c2b068fc378daa952ba7f163c4a11628f55a4df523b3ef83604051620003669190620007cc565b60405180910390a3505050565b5f81519050919050565b7f4e487b71000000000000000000000000000000000000000000000000000000005f52604160045260245ffd5b7f4e487b71000000000000000000000000000000000000000000000000000000005f52602260045260245ffd5b5f6002820490506001821680620003ef57607f821691505b602082108103620004055762000404620003aa565b5b50919050565b5f819050815f5260205f209050919050565b5f6020601f8301049050919050565b5f82821b905092915050565b5f60088302620004697fffffffffffffffffffffffffffffffffffffffffffffffffffffffffffffffff826200042c565b6200047586836200042c565b95508019841693508086168417925050509392505050565b5f819050919050565b5f819050919050565b5f620004bf620004b9620004b3846200048d565b62000496565b6200048d565b9050919050565b5f819050919050565b620004da836200049f565b620004f2620004e982620004c6565b84845462000438565b825550505050565b5f90565b62000508620004fa565b62000515818484620004cf565b505050565b5b818110156200053c57620005305f82620004fe565b6001810190506200051b565b5050565b601f8211156200058b5762000555816200040b565b62000560846200041d565b8101602085101562000570578190505b620005886200057f856200041d565b8301826200051a565b50505b505050565b5f82821c905092915050565b5f620005ad5f198460080262000590565b1980831691505092915050565b5f620005c783836200059c565b9150826002028217905092915050565b620005e28262000373565b67ffffffffffffffff811115620005fe57620005fd6200037d565b5b6200060a8254620003d7565b6200061782828562000540565b5f60209050601f8311600181146200064d575f841562000638578287015190505b620006448582620005ba565b865550620006b3565b601f1984166200065d866200040b565b5f5b8281101562000686578489015182556001820191506020850194506020810190506200065f565b86831015620006a65784890151620006a2601f8916826200059c565b8355505b6001600288020188555050505b505050505050565b5f73ffffffffffffffffffffffffffffffffffffffff82169050919050565b5f620006e682620006bb565b9050919050565b620006f881620006da565b82525050565b5f602082019050620007135f830184620006ed565b92915050565b7f4e487b71000000000000000000000000000000000000000000000000000000005f52601160045260245ffd5b5f62000752826200048d565b91506200075f836200048d565b92508282019050808211156200077a576200077962000719565b5b92915050565b6200078b816200048d565b82525050565b5f606082019050620007a65f830186620006ed565b620007b5602083018562000780565b620007c4604083018462000780565b949350505050565b5f602082019050620007e15f83018462000780565b92915050565b6112c480620007f55f395ff3fe6080604052600436106100dc575f3560e01c80638da5cb5b1161007e578063d0febe4c11610058578063d0febe4c146102cc578063d2d8cb67146102d6578063dd62ed3e14610300578063e086e5ec1461033c576100dc565b80638da5cb5b1461023c57806395d89b4114610266578063a9059cbb14610290576100dc565b806323b872dd116100ba57806323b872dd146101705780632ff2e9dc146101ac578063313ce567146101d657806370a0823114610200576100dc565b806306fdde03146100e0578063095ea7b31461010a57806318160ddd14610146575b5f80fd5b3480156100eb575f80fd5b506100f4610352565b6040516101019190610d67565b60405180910390f35b348015610115575f80fd5b50610130600480360381019061012b9190610e18565b6103e2565b60405161013d9190610e70565b60405180910390f35b348015610151575f80fd5b5061015a610404565b6040516101679190610e98565b60405180910390f35b34801561017b575f80fd5b5061019660048036038101906101919190610eb1565b61040d565b6040516101a39190610e70565b60405180910390f35b3480156101b7575f80fd5b506101c061043b565b6040516101cd9190610e98565b60405180910390f35b3480156101e1575f80fd5b506101ea610449565b6040516101f79190610f1c565b60405180910390f35b34801561020b575f80fd5b5061022660048036038101906102219190610f35565b610451565b6040516102339190610e98565b60405180910390f35b348015610247575f80fd5b50610250610496565b60405161025d9190610f6f565b60405180910390f35b348015610271575f80fd5b5061027a61049d565b6040516102879190610d67565b60405180910390f35b34801561029b575f80fd5b506102b660048036038101906102b19190610e18565b61052d565b6040516102c39190610e70565b60405180910390f35b6102d461054f565b005b3480156102e1575f80fd5b506102ea610612565b6040516102f79190610e98565b60405180910390f35b34801561030b575f80fd5b5061032660048036038101906103219190610f88565b61061c565b6040516103339190610e98565b60405180910390f35b348015610347575f80fd5b5061035061069e565b005b60606003805461036190610ff3565b80601f016020809104026020016040519081016040528092919081815260200182805461038d90610ff3565b80156103d85780601f106103af576101008083540402835291602001916103d8565b820191905f5260205f20905b8154815290600101906020018083116103bb57829003601f168201915b5050505050905090565b5f806103ec610759565b90506103f9818585610760565b600191505092915050565b5f600254905090565b5f80610417610759565b9050610424858285610772565b61042f858585610805565b60019150509392505050565b69021e19e0c9bab240000081565b5f6012905090565b5f805f8373ffffffffffffffffffffffffffffffffffffffff1673ffffffffffffffffffffffffffffffffffffffff1681526020019081526020015f20549050919050565b5f33905090565b6060600480546104ac90610ff3565b80601f01602080910402602001604051908101604052809291908181526020018280546104d890610ff3565b80156105235780601f106104fa57610100808354040283529160200191610523565b820191905f5260205f20905b81548152906001019060200180831161050657829003601f168201915b5050505050905090565b5f80610537610759565b9050610544818585610805565b600191505092915050565b5f3411610591576040517f08c379a00000000000000000000000000000000000000000000000000000000081526004016105889061106d565b60405180910390fd5b5f655af3107a4000670de0b6b3a7640000346105ad91906110b8565b6105b79190611126565b9050806105c330610451565b1015610604576040517f08c379a00000000000000000000000000000000000000000000000000000000081526004016105fb906111a0565b60405180910390fd5b61060f303383610805565b50565b655af3107a400081565b5f60015f8473ffffffffffffffffffffffffffffffffffffffff1673ffffffffffffffffffffffffffffffffffffffff1681526020019081526020015f205f8373ffffffffffffffffffffffffffffffffffffffff1673ffffffffffffffffffffffffffffffffffffffff1681526020019081526020015f2054905092915050565b6106a6610496565b73ffffffffffffffffffffffffffffffffffffffff163373ffffffffffffffffffffffffffffffffffffffff1614610713576040517f08c379a000000000000000000000000000000000000000000000000000000000815260040161070a90611208565b60405180910390fd5b3373ffffffffffffffffffffffffffffffffffffffff166108fc4790811502906040515f60405180830381858888f19350505050158015610756573d5f803e3d5ffd5b50565b5f33905090565b61076d83838360016108f5565b505050565b5f61077d848461061c565b90507fffffffffffffffffffffffffffffffffffffffffffffffffffffffffffffffff8110156107ff57818110156107f0578281836040517ffb8f41b20000000000000000000000000000000000000000000000000000000081526004016107e793929190611226565b60405180910390fd5b6107fe84848484035f6108f5565b5b50505050565b5f73ffffffffffffffffffffffffffffffffffffffff168373ffffffffffffffffffffffffffffffffffffffff1603610875575f6040517f96c6fd1e00000000000000000000000000000000000000000000000000000000815260040161086c9190610f6f565b60405180910390fd5b5f73ffffffffffffffffffffffffffffffffffffffff168273ffffffffffffffffffffffffffffffffffffffff16036108e5575f6040517fec442f050000000000000000000000000000000000000000000000000000000081526004016108dc9190610f6f565b60405180910390fd5b6108f0838383610ac4565b505050565b5f73ffffffffffffffffffffffffffffffffffffffff168473ffffffffffffffffffffffffffffffffffffffff1603610965575f6040517fe602df0500000000000000000000000000000000000000000000000000000000815260040161095c9190610f6f565b60405180910390fd5b5f73ffffffffffffffffffffffffffffffffffffffff168373ffffffffffffffffffffffffffffffffffffffff16036109d5575f6040517f94280d620000000000000000000000000000000000000000000000000000000081526004016109cc9190610f6f565b60405180910390fd5b8160015f8673ffffffffffffffffffffffffffffffffffffffff1673ffffffffffffffffffffffffffffffffffffffff1681526020019081526020015f205f8573ffffffffffffffffffffffffffffffffffffffff1673ffffffffffffffffffffffffffffffffffffffff1681526020019081526020015f20819055508015610abe578273ffffffffffffffffffffffffffffffffffffffff168473ffffffffffffffffffffffffffffffffffffffff167f8c5be1e5ebec7d5bd14f71427d1e84f3dd0314c0f7b2291e5b200ac8c7c3b92584604051610ab59190610e98565b60405180910390a35b50505050565b5f73ffffffffffffffffffffffffffffffffffffffff168373ffffffffffffffffffffffffffffffffffffffff1603610b14578060025f828254610b08919061125b565b92505081905550610be2565b5f805f8573ffffffffffffffffffffffffffffffffffffffff1673ffffffffffffffffffffffffffffffffffffffff1681526020019081526020015f2054905081811015610b9d578381836040517fe450d38c000000000000000000000000000000000000000000000000000000008152600401610b9493929190611226565b60405180910390fd5b8181035f808673ffffffffffffffffffffffffffffffffffffffff1673ffffffffffffffffffffffffffffffffffffffff1681526020019081526020015f2081905550505b5f73ffffffffffffffffffffffffffffffffffffffff168273ffffffffffffffffffffffffffffffffffffffff1603610c29578060025f8282540392505081905550610c73565b805f808473ffffffffffffffffffffffffffffffffffffffff1673ffffffffffffffffffffffffffffffffffffffff1681526020019081526020015f205f82825401925050819055505b8173ffffffffffffffffffffffffffffffffffffffff168373ffffffffffffffffffffffffffffffffffffffff167fddf252ad1be2c89b69c2b068fc378daa952ba7f163c4a11628f55a4df523b3ef83604051610cd09190610e98565b60405180910390a3505050565b5f81519050919050565b5f82825260208201905092915050565b5f5b83811015610d14578082015181840152602081019050610cf9565b5f8484015250505050565b5f601f19601f8301169050919050565b5f610d3982610cdd565b610d438185610ce7565b9350610d53818560208601610cf7565b610d5c81610d1f565b840191505092915050565b5f6020820190508181035f830152610d7f8184610d2f565b905092915050565b5f80fd5b5f73ffffffffffffffffffffffffffffffffffffffff82169050919050565b5f610db482610d8b565b9050919050565b610dc481610daa565b8114610dce575f80fd5b50565b5f81359050610ddf81610dbb565b92915050565b5f819050919050565b610df781610de5565b8114610e01575f80fd5b50565b5f81359050610e1281610dee565b92915050565b5f8060408385031215610e2e57610e2d610d87565b5b5f610e3b85828601610dd1565b9250506020610e4c85828601610e04565b9150509250929050565b5f8115159050919050565b610e6a81610e56565b82525050565b5f602082019050610e835f830184610e61565b92915050565b610e9281610de5565b82525050565b5f602082019050610eab5f830184610e89565b92915050565b5f805f60608486031215610ec857610ec7610d87565b5b5f610ed586828701610dd1565b9350506020610ee686828701610dd1565b9250506040610ef786828701610e04565b9150509250925092565b5f60ff82169050919050565b610f1681610f01565b82525050565b5f602082019050610f2f5f830184610f0d565b92915050565b5f60208284031215610f4a57610f49610d87565b5b5f610f5784828501610dd1565b91505092915050565b610f6981610daa565b82525050565b5f602082019050610f825f830184610f60565b92915050565b5f8060408385031215610f9e57610f9d610d87565b5b5f610fab85828601610dd1565b9250506020610fbc85828601610dd1565b9150509250929050565b7f4e487b71000000000000000000000000000000000000000000000000000000005f52602260045260245ffd5b5f600282049050600182168061100a57607f821691505b60208210810361101d5761101c610fc6565b5b50919050565b7f4d7573742073656e642045544820746f2062757920746f6b656e7300000000005f82015250565b5f611057601b83610ce7565b915061106282611023565b602082019050919050565b5f6020820190508181035f8301526110848161104b565b9050919050565b7f4e487b71000000000000000000000000000000000000000000000000000000005f52601160045260245ffd5b5f6110c282610de5565b91506110cd83610de5565b92508282026110db81610de5565b915082820484148315176110f2576110f161108b565b5b5092915050565b7f4e487b71000000000000000000000000000000000000000000000000000000005f52601260045260245ffd5b5f61113082610de5565b915061113b83610de5565b92508261114b5761114a6110f9565b5b828204905092915050565b7f4e6f7420656e6f75676820746f6b656e7320617661696c61626c6500000000005f82015250565b5f61118a601b83610ce7565b915061119582611156565b602082019050919050565b5f6020820190508181035f8301526111b78161117e565b9050919050565b7f4f6e6c79206f776e65722063616e2077697468647261770000000000000000005f82015250565b5f6111f2601783610ce7565b91506111fd826111be565b602082019050919050565b5f6020820190508181035f83015261121f816111e6565b9050919050565b5f6060820190506112395f830186610f60565b6112466020830185610e89565b6112536040830184610e89565b949350505050565b5f61126582610de5565b915061127083610de5565b92508282019050808211156112885761128761108b565b5b9291505056fea2646970667358221220ba34af04138e3fc8766bb75bac5a84e14fdccaf546c8e3d6396593d8163d399b64736f6c63430008150033",
  "immutableReferences": {},
  "source": "// SPDX-License-Identifier: MIT\npragma solidity ^0.8.20;\n\nimport \"@openzeppelin/contracts/token/ERC20/ERC20.sol\";\n\ncontract YDDCoin is ERC20 {\n    // Token parameters\n    uint256 public constant INITIAL_SUPPLY = 10000 * 10**18; // 10000 tokens with 18 decimals\n    uint256 public constant TOKEN_PRICE = 0.0001 ether; // 0.0001 ETH per token\n\n    constructor() ERC20(\"YDDCoin\", \"YDD\") {\n        _mint(msg.sender, INITIAL_SUPPLY);\n    }\n\n    // Function to buy tokens\n    function buyTokens() public payable {\n        require(msg.value > 0, \"Must send ETH to buy tokens\");\n        uint256 tokenAmount = (msg.value * 1 ether) / TOKEN_PRICE;\n        require(balanceOf(address(this)) >= tokenAmount, \"Not enough tokens available\");\n        _transfer(address(this), msg.sender, tokenAmount);\n    }\n\n    // Function to withdraw ETH (only owner)\n    function withdrawETH() public {\n        require(msg.sender == owner(), \"Only owner can withdraw\");\n        payable(msg.sender).transfer(address(this).balance);\n    }\n\n    // Function to get owner\n    function owner() public view returns (address) {\n        return msg.sender;\n    }\n} ",
  "sourcePath": "/Users/sc_liu/Desktop/ts/truffle/contracts/YDDCoin.sol",
  "compiler": {
    "name": "solc",
    "version": "0.8.21+commit.d9974bed.Emscripten.clang"
  },
  "schemaVersion": "3.4.16",
  "updatedAt": "2025-02-20T09:16:45.090Z",
  "networkType": "ethereum",
  "devdoc": {
    "errors": {
      "ERC20InsufficientAllowance(address,uint256,uint256)": [
        {
          "details": "Indicates a failure with the `spender`s `allowance`. Used in transfers.",
          "params": {
            "allowance": "Amount of tokens a `spender` is allowed to operate with.",
            "needed": "Minimum amount required to perform a transfer.",
            "spender": "Address that may be allowed to operate on tokens without being their owner."
          }
        }
      ],
      "ERC20InsufficientBalance(address,uint256,uint256)": [
        {
          "details": "Indicates an error related to the current `balance` of a `sender`. Used in transfers.",
          "params": {
            "balance": "Current balance for the interacting account.",
            "needed": "Minimum amount required to perform a transfer.",
            "sender": "Address whose tokens are being transferred."
          }
        }
      ],
      "ERC20InvalidApprover(address)": [
        {
          "details": "Indicates a failure with the `approver` of a token to be approved. Used in approvals.",
          "params": {
            "approver": "Address initiating an approval operation."
          }
        }
      ],
      "ERC20InvalidReceiver(address)": [
        {
          "details": "Indicates a failure with the token `receiver`. Used in transfers.",
          "params": {
            "receiver": "Address to which tokens are being transferred."
          }
        }
      ],
      "ERC20InvalidSender(address)": [
        {
          "details": "Indicates a failure with the token `sender`. Used in transfers.",
          "params": {
            "sender": "Address whose tokens are being transferred."
          }
        }
      ],
      "ERC20InvalidSpender(address)": [
        {
          "details": "Indicates a failure with the `spender` to be approved. Used in approvals.",
          "params": {
            "spender": "Address that may be allowed to operate on tokens without being their owner."
          }
        }
      ]
    },
    "events": {
      "Approval(address,address,uint256)": {
        "details": "Emitted when the allowance of a `spender` for an `owner` is set by a call to {approve}. `value` is the new allowance."
      },
      "Transfer(address,address,uint256)": {
        "details": "Emitted when `value` tokens are moved from one account (`from`) to another (`to`). Note that `value` may be zero."
      }
    },
    "kind": "dev",
    "methods": {
      "allowance(address,address)": {
        "details": "See {IERC20-allowance}."
      },
      "approve(address,uint256)": {
        "details": "See {IERC20-approve}. NOTE: If `value` is the maximum `uint256`, the allowance is not updated on `transferFrom`. This is semantically equivalent to an infinite approval. Requirements: - `spender` cannot be the zero address."
      },
      "balanceOf(address)": {
        "details": "See {IERC20-balanceOf}."
      },
      "decimals()": {
        "details": "Returns the number of decimals used to get its user representation. For example, if `decimals` equals `2`, a balance of `505` tokens should be displayed to a user as `5.05` (`505 / 10 ** 2`). Tokens usually opt for a value of 18, imitating the relationship between Ether and Wei. This is the default value returned by this function, unless it's overridden. NOTE: This information is only used for _display_ purposes: it in no way affects any of the arithmetic of the contract, including {IERC20-balanceOf} and {IERC20-transfer}."
      },
      "name()": {
        "details": "Returns the name of the token."
      },
      "symbol()": {
        "details": "Returns the symbol of the token, usually a shorter version of the name."
      },
      "totalSupply()": {
        "details": "See {IERC20-totalSupply}."
      },
      "transfer(address,uint256)": {
        "details": "See {IERC20-transfer}. Requirements: - `to` cannot be the zero address. - the caller must have a balance of at least `value`."
      },
      "transferFrom(address,address,uint256)": {
        "details": "See {IERC20-transferFrom}. Skips emitting an {Approval} event indicating an allowance update. This is not required by the ERC. See {xref-ERC20-_approve-address-address-uint256-bool-}[_approve]. NOTE: Does not update the allowance if the current allowance is the maximum `uint256`. Requirements: - `from` and `to` cannot be the zero address. - `from` must have a balance of at least `value`. - the caller must have allowance for ``from``'s tokens of at least `value`."
      }
    },
    "version": 1
  },
  "userdoc": {
    "kind": "user",
    "methods": {},
    "version": 1
  }
}