{
  "contractName": "YDDShow",
  "abi": [
    {
      "inputs": [],
      "stateMutability": "nonpayable",
      "type": "constructor"
    },
    {
      "inputs": [],
      "name": "owner",
      "outputs": [
        {
          "internalType": "address",
          "name": "",
          "type": "address"
        }
      ],
      "stateMutability": "view",
      "type": "function",
      "constant": true
    },
    {
      "inputs": [
        {
          "internalType": "uint256",
          "name": "_age",
          "type": "uint256"
        }
      ],
      "name": "setAge",
      "outputs": [],
      "stateMutability": "nonpayable",
      "type": "function"
    },
    {
      "inputs": [],
      "name": "getAge",
      "outputs": [
        {
          "internalType": "uint256",
          "name": "",
          "type": "uint256"
        }
      ],
      "stateMutability": "view",
      "type": "function",
      "constant": true
    }
  ],
  "bytecode": "0x608060405234801561000f575f80fd5b503360015f6101000a81548173ffffffffffffffffffffffffffffffffffffffff021916908373ffffffffffffffffffffffffffffffffffffffff1602179055506102af8061005d5f395ff3fe608060405234801561000f575f80fd5b506004361061003f575f3560e01c80638da5cb5b14610043578063967e6e6514610061578063d5dcf1271461007f575b5f80fd5b61004b61009b565b604051610058919061015e565b60405180910390f35b6100696100c0565b604051610076919061018f565b60405180910390f35b610099600480360381019061009491906101d6565b6100c8565b005b60015f9054906101000a900473ffffffffffffffffffffffffffffffffffffffff1681565b5f8054905090565b5f811180156100d75750609681105b610116576040517f08c379a000000000000000000000000000000000000000000000000000000000815260040161010d9061025b565b60405180910390fd5b805f8190555050565b5f73ffffffffffffffffffffffffffffffffffffffff82169050919050565b5f6101488261011f565b9050919050565b6101588161013e565b82525050565b5f6020820190506101715f83018461014f565b92915050565b5f819050919050565b61018981610177565b82525050565b5f6020820190506101a25f830184610180565b92915050565b5f80fd5b6101b581610177565b81146101bf575f80fd5b50565b5f813590506101d0816101ac565b92915050565b5f602082840312156101eb576101ea6101a8565b5b5f6101f8848285016101c2565b91505092915050565b5f82825260208201905092915050565b7f496e76616c6964206167652076616c75650000000000000000000000000000005f82015250565b5f610245601183610201565b915061025082610211565b602082019050919050565b5f6020820190508181035f83015261027281610239565b905091905056fea26469706673582212202591b8160d03ece0c1229bc24af935915531d994fdc3b7d2cd45f3c42f84eb8764736f6c63430008140033",
  "immutableReferences": {},
  "source": "// SPDX-License-Identifier: MIT\npragma solidity ^0.8.20;\n\ncontract YDDShow {\n    uint256 private age;\n    address public owner;\n\n    constructor() {\n        owner = msg.sender;\n    }\n\n    // Function to set age\n    function setAge(uint256 _age) public {\n        require(_age > 0 && _age < 150, \"Invalid age value\");\n        age = _age;\n    }\n\n    // Function to get age\n    function getAge() public view returns (uint256) {\n        return age;\n    }\n} ",
  "sourcePath": "/Users/sc_liu/Desktop/ts/truffle/contracts/YDDShow.sol",
  "compiler": {
    "name": "solc",
    "version": "0.8.20+commit.a1b79de6.Emscripten.clang"
  },
  "schemaVersion": "3.4.16",
  "updatedAt": "2025-02-20T09:16:45.097Z",
  "networkType": "ethereum",
  "devdoc": {
    "kind": "dev",
    "methods": {},
    "version": 1
  },
  "userdoc": {
    "kind": "user",
    "methods": {},
    "version": 1
  }
}